:020000040000FA
:020000000528D1
:040002000034003492
:0800080040280F30A100013077
:10001000A2000230A3000330A40083160317880156
:10002000890183160313880183160313F0308700B8
:1000300083120313FF308800831203130F308700ED
:10004000831603130730810083120313ED30810000
:10005000831203130B118B168B17A0012E28820716
:10006000C034F934A434B034993492348234F8343E
:100070008034903488348334C634A13486348E344A
:10008000F000030EF1000B11ED3081000F308700FE
:1000900021302007840000080F392F208800200815
:1000A0005C208700A00A2008043A0319A001710E01
:1000B0008300F00E700E090082070E340B340D34ED
:0200C000073403
:02400E00F23F7F
:02401000FF3F70
:00000001FF
